:100000000C9458000C9480000C9480000C94800098
:100010000C9480000C9480000C9480000C94800060
:100020000C9480000C9480000C9480000C94800050
:100030000C9480000C9480000C9480000C94800040
:100040000C94CD040C9480000C9480000C948000DF
:100050000C9480000C9480000C9480000C94800020
:100060000C9417050C948000000000002500280067
:100070002B00040404040404040402020202020229
:10008000030303030303010204081020408001025C
:1000900004081020010204081020000000080002DB
:1000A0000100000304070000000000000000360605
:1000B00011241FBECFEFD8E0DEBFCDBF11E0A0E01E
:1000C000B1E0ECEBFFE002C005900D92AE39B10754
:1000D000D9F722E0AEE9B1E001C01D92A739B2071D
:1000E000E1F710E0C8E5D0E004C02197FE010E94CE
:1000F000D607C735D107C9F70E946C060C94DC07F8
:100100000C94000090E0FC01E656FF4F2491FC01A6
:10011000EA57FF4F3491FC01EE58FF4FE491EE2374
:10012000C9F0222339F0233001F1A8F4213019F16C
:10013000223029F1F0E0EE0FFF1FE859FF4FA591A3
:10014000B4918FB7F894EC91611126C030953E239D
:100150003C938FBF08952730A9F02830C9F0243090
:1001600049F7809180008F7D03C0809180008F7758
:1001700080938000DFCF84B58F7784BDDBCF84B5DB
:100180008F7DFBCF8091B0008F778093B000D2CF6E
:100190008091B0008F7DF9CF3E2BDACF3FB7F89436
:1001A0008091630290916402A0916502B091660211
:1001B00026B5A89B05C02F3F19F00196A11DB11DC2
:1001C0003FBFBA2FA92F982F8827BC01CD01620FFE
:1001D000711D811D911D42E0660F771F881F991FB9
:1001E0004A95D1F708958F929F92AF92BF92CF9286
:1001F000DF92EF92FF924B015C010E94CE006B01F7
:100200007C010E94CE006C197D098E099F09683E11
:10021000734081059105A8F321E0821A9108A10895
:10022000B10888EEC80E83E0D81EE11CF11C8114D1
:100230009104A104B10429F7FF90EF90DF90CF90D3
:10024000BF90AF909F908F900895AF92BF92CF9242
:10025000DF92EF92FF920F931F93CF93DF936C0186
:100260007B018B01040F151FEB015E01AE18BF0867
:10027000C017D10759F06991D601ED91FC91019019
:10028000F081E02DC6010995892B79F7C501DF9131
:10029000CF911F910F91FF90EF90DF90CF90BF9083
:1002A000AF90089520910C02260F3327331F21327F
:1002B0003105ECF420913202FC0190E080E0243022
:1002C00069F082E00895A0910C022191AC014651A1
:1002D0005E4FA40FB52FB11D2C930196861798F38E
:1002E00080910C02680F60930C0280E0089581E019
:1002F00008951092320281E080933402109233020A
:1003000061E082E10E94820061E083E10E9482005C
:10031000E9EBF0E080818E7F808380818D7F808318
:1003200088E48093B80085E48093BC000895CF935F
:10033000DF9391E09093E9018823B9F0C091B80070
:10034000D091BA008091BC008A7B8093BC0060E0B1
:1003500082E10E94820060E083E10E9482000E94AC
:100360007901D093BA00C093B800DF91CF9108957E
:10037000089508950895E091E1018091E001E81762
:1003800030F4F0E0E054FE4F808190E008958FEF6C
:100390009FEF08959091E1018091E0012FEF3FEFF1
:1003A000981748F4E92FF0E0E054FE4F208130E048
:1003B0009F5F9093E101C90108958091E0019091C0
:1003C000E101891B990B0895CF92DF92EF92FF9282
:1003D0000F931F93CF93DF937C01CB018A01209170
:1003E000BF01222389F0EB016B01C40ED51ECC1591
:1003F000DD0569F06991D701ED91FC910190F081E3
:10040000E02DC7010995F3CF642F0E945201C80166
:10041000DF91CF911F910F91FF90EF90DF90CF90E0
:100420000895CF93DF931F92CDB7DEB769832091F4
:10043000BF012223F9F02091E201203258F021E09F
:1004400030E0FC013383228390E080E00F90DF9165
:10045000CF9108958091E301E82FF0E0E156FE4F3F
:10046000998190838F5F8093E3018093E20181E023
:1004700090E0ECCF61E0CE0101960E945201F7CFEF
:10048000CF92DF92EF92FF920F931F93CF93DF9360
:10049000FC01C48121E02093BF01C0939E01109212
:1004A000E3011092E2018385682B87E692E00E94C7
:1004B0001102D091E201D13208F092C00E94CE0028
:1004C0006B017C0180913202811165C082E08093D2
:1004D000320281E0809334028FEF809331021092D8
:1004E0005602D0935502AFE9B1E0E5E3F2E080E0D7
:1004F000D81385C01092570280915702CC0FC82B99
:10050000C093570280913302813009F07CC0109271
:1005100033020E94CE006B017C01809157028093D0
:10052000BB008091E5019091E601A091E701B091B7
:10053000E801892B8A2B8B2B99F00E94CE00009129
:10054000E5011091E6012091E7013091E8016C1975
:100550007D098E099F090617170728073907E0F15B
:100560008091BC0083FDD9CF85EC8093BC000E94B4
:10057000CE006B017C0180913202823009F445C0CB
:10058000809131028F3F61F180913102803241F1DF
:100590008091310225C08091E5019091E601A09102
:1005A000E701B091E801892B8A2B8B2B09F48ACFC4
:1005B0000E94CE000091E5011091E6012091E70133
:1005C0003091E8016C197D098E099F0906171707FC
:1005D0002807390708F076CF8091E4010E9497013F
:1005E0001092E3011092E2011092BF01DF91CF91CE
:1005F0001F910F91FF90EF90DF90CF9008959D9104
:1006000091938F5F75CF85EEB0CF8091E50190918A
:10061000E601A091E701B091E801892B8A2B8B2B91
:1006200009F4A9CF0E94CE000091E5011091E601E6
:100630002091E7013091E8016C197D098E099F092D
:10064000061717072807390708F095CFC5CF089573
:1006500090E080E008950F931F93CF938C01C62FF5
:100660000E9440026C2F6460C8010E9440026C2FFF
:100670006B7FC8010E94400283EC90E00197F1F784
:10068000CF911F910F9108950F931F93CF93DF93F5
:100690008C01D62FC42F607F642B0E942B0380E136
:1006A000D89FB00111246C2BC801DF91CF911F910D
:1006B0000F910C942B03CF93DF93CDB7DEB7289720
:1006C0000FB6F894DEBF0FBECDBF28E0E0E0F1E04A
:1006D000DE01119601900D922A95E1F7FC0120852B
:1006E000261708F46FEF70E0660F771F21E030E007
:1006F0002C0F3D1F620F731FFB016081606840E09B
:1007000028960FB6F894DEBF0FBECDBFDF91CF9114
:100710000C94440341E00E94440381E090E008957A
:1007200040E061E00E9444038BE39FE10197F1F711
:1007300008950F931F93CF93DF93EC011092E10183
:100740001092E0011092E3011092E2010E947901FF
:1007500088EB91E090930B0280930A0289EB91E081
:1007600090930F0280930E021D828A85823010F0D2
:1007700098E09D83888762E370E080E090E00E94CB
:10078000F3006B85CE010E94400268EE73E080E0CA
:1007900090E00E94F30060E3CE010E942B030BE483
:1007A00016E4C8010197F1F760E3CE010E942B0324
:1007B000C8010197F1F760E3CE010E942B0383E5A6
:1007C00092E00197F1F760E2CE010E942B036D8168
:1007D000606240E0CE010E94440384E08E8340E0EA
:1007E0006CE0CE010E944403CE010E94900382E09F
:1007F0008F8340E066E0CE010E94440340E062E067
:10080000CE010E9444038BE39FE10197F1F7DF9152
:10081000CF911F910F9108958F929F92AF92BF92A7
:10082000EF92FF920F931F93CF93DF93CDB7DEB775
:10083000A1970FB6F894DEBF0FBECDBF7C01FA01C1
:10084000CB0119A2223008F42AE08E010F5D1F4F60
:10085000822E912CB12CA12CBF01A50194010E94E4
:10086000B407F901CA016A304CF5605DD8016E9396
:100870008D01232B242B252B79F790E080E0109716
:1008800061F0FD0101900020E9F73197AF014A1BAB
:100890005B0BBD01C7010E942501A1960FB6F8941C
:1008A000DEBF0FBECDBFDF91CF911F910F91FF90A3
:1008B000EF90BF90AF909F908F900895695CD6CFD6
:1008C000CF92DF92EF92FF92CF93DF9377FF1AC020
:1008D0006A017B01EC0141E06DE20E944403442780
:1008E0005527BA014C195D096E097F092AE0CE012E
:1008F0000E940C040196DF91CF91FF90EF90DF9062
:10090000CF9008952AE0DF91CF91FF90EF90DF9094
:10091000CF900C940C04FB0101900020E9F7319773
:10092000AF01461B570B0C94250185ED8093BC004D
:100930008091E5019091E601A091E701B091E80175
:100940000796A11DB11D23E0B695A79597958795AC
:100950002A95D1F72091BC0024FD03C010923202E9
:1009600008954091E5015091E6016091E701709191
:10097000E801452B462B472B69F30097A105B105EC
:1009800041F02AE22A95F1F700C00197A109B109C7
:10099000E1CF8091E4010C9497011F920F920FB662
:1009A0000F9211242F933F938F939F93AF93BF93F5
:1009B00080915F0290916002A0916102B091620209
:1009C00030915E0223E0230F2D3758F50196A11DCB
:1009D000B11D20935E0280935F0290936002A0930A
:1009E0006102B09362028091630290916402A091CF
:1009F0006502B09166020196A11DB11D809363024C
:100A000090936402A0936502B0936602BF91AF9188
:100A10009F918F913F912F910F900FBE0F901F903C
:100A2000189526E8230F0296A11DB11DD2CF1F9263
:100A30000F920FB60F9211242F933F934F935F9312
:100A40006F937F938F939F93AF93BF93EF93FF9396
:100A50008091B900887F803609F44AC0F0F5883269
:100A600009F4A7C018F5803109F49BC0B8F48823B5
:100A700009F4F9C0883009F494C0FF91EF91BF9157
:100A8000AF919F918F917F916F915F914F913F9126
:100A90002F910F900FBE0F901F901895883109F479
:100AA00088C0803251F78093310214C0803409F439
:100AB0009DC040F48033B9F38833F9F68093310256
:100AC00085ECB0C0803509F485C0883509F496C03E
:100AD000883499F60E949504D0CF883909F48CC0E7
:100AE00038F5883729F050F4883611F0803729F628
:100AF00083E0809332021092300257C0883809F4A4
:100B00007BC0803919F0803809F0B7CF809130026E
:100B1000803208F071C0E091300281E08E0F809346
:100B200030028091BB00F0E0E05FFD4F80833DC06C
:100B3000803B39F0E0F4803A09F479C0883A09F052
:100B40009CCF84E08093320210920D0210920C022E
:100B5000E0910A02F0910B02099580910C0281113B
:100B60000FC081E080930C021092EA0109C0803C22
:100B700009F4A6CF883C09F4A3CF883B09F07DCFC8
:100B8000E0910D0281E08E0F80930D02F0E0E651BE
:100B9000FE4F80818093BB0090910D0280910C02EA
:100BA00029C0809157028093BB0085EC8093BC00E4
:100BB00064CF9091560280915502981758F5E091B4
:100BC000560281E08E0F80935602F0E0EB5CFD4F01
:100BD0008081E9CFE091560281E08E0F809356022A
:100BE0008091BB00F0E0EB5CFD4F8083909156025A
:100BF000809155029817C8F285E8D8CFE091560247
:100C000081E08E0F809356028091BB00F0E0EB5C98
:100C1000FD4F80838091340281115CCF81E080930D
:100C2000330284EA8093BC001092320226CF85EC16
:100C30008093BC001092320280913002803230F4F6
:100C4000E0913002F0E0E05FFD4F108260913002F1
:100C500070E0E0910E02F0910F0280E192E00995C0
:100C6000109230020ACF1092310234CFE7E6F2E060
:100C70001382128288EE93E0A0E0B0E08483958333
:100C8000A683B7838CE091E091838083EBE8F2E068
:100C9000138212822EE131E03183208380E284834B
:100CA00090E1918782E082871386EFE7F2E013827A
:100CB00012823183208341E24483918782871386A5
:100CC000E3E7F2E0138212823183208322E224835D
:100CD0009187828713860895789484B5826084BD55
:100CE00084B5816084BD85B5826085BD85B5816030
:100CF00085BD80916E00816080936E0010928100AE
:100D00008091810082608093810080918100816068
:100D10008093810080918000816080938000809129
:100D2000B10084608093B1008091B00081608093B5
:100D3000B00080917A00846080937A0080917A007C
:100D4000826080937A0080917A00816080937A003B
:100D500080917A00806880937A001092C1008BE8BD
:100D600092E00E9499038FE792E00E94990383E743
:100D700092E00E9499038BE892E00E9490038FE733
:100D800092E00E94900383E792E00E949003C8E003
:100D9000C093960260E08BE892E00E944002C0930C
:100DA0008A0260E08FE792E00E944002C0937E02D8
:100DB00060E083E792E00E94400260E08BE892E00E
:100DC0000E945B0366E271E08BE892E00E948B0474
:100DD00061E08BE892E00E945B0367E371E08BE8DF
:100DE00092E00E948B0468EE73E080E090E00E9445
:100DF000F30060E08FE792E00E945B0366E271E03F
:100E00008FE792E00E948B0461E08FE792E00E94FE
:100E10005B0368E471E08FE792E00E948B0468EE68
:100E200073E080E090E00E94F30060E083E792E0EE
:100E30000E945B0366E271E083E792E00E948B040C
:100E400061E083E792E00E945B0369E571E083E77C
:100E500092E00E948B0460ED77E080E090E00E94D9
:100E6000F3008BE892E00E9490038FE792E00E94EB
:100E7000900383E792E00E949003C0E0D0E080916D
:100E80005C0290915D02019690935D0280935C02FA
:100E900080915A0290915B02019690935B0280933D
:100EA0005A028091580290915902019690935902EA
:100EB0008093580260E08BE892E00E945B036AE650
:100EC00071E08BE892E00E948B0461E08BE892E095
:100ED0000E945B0340915C0250915D02052E000C64
:100EE000660B770B8BE892E00E94600460E08FE76E
:100EF00092E00E945B036BE771E08FE792E00E9453
:100F00008B0461E08FE792E00E945B0340915A02FC
:100F100050915B02052E000C660B770B8FE792E079
:100F20000E94600460E083E792E00E945B036CE84B
:100F300071E083E792E00E948B0461E083E792E036
:100F40000E945B034091580250915902052E000CFB
:100F5000660B770B83E792E00E946004209709F408
:100F60008ECF0E9400008BCFA1E21A2EAA1BBB1BC2
:100F7000FD010DC0AA1FBB1FEE1FFF1FA217B30765
:100F8000E407F50720F0A21BB30BE40BF50B661F7B
:100F9000771F881F991F1A9469F76095709580953F
:100FA00090959B01AC01BD01CF010895EE0FFF1F8D
:0C0FB0000590F491E02D0994F894FFCF17
:100FBC000000400014005400000000001102E40185
:100FCC002803BA01DD01CA01BB01000000008A033D
:100FDC0025012803270323202020446973706C61AA
:100FEC007920202020230023202020204C43442043
:100FFC00312020202020230023202020204C43447B
:10100C0020322020202020230023202020204C438D
:10101C0044203320202020202300436F6E74616411
:10102C006F72204C434420313A2000436F6E746140
:10103C00646F72204C434420323A2000436F6E742C
:0E104C0061646F72204C434420333A20000050
:00000001FF
