:100000000C945E000C9486000C9486000C94860080
:100010000C9486000C9486000C9486000C94860048
:100020000C9486000C9486000C9486000C94860038
:100030000C9486000C9486000C9486000C94860028
:100040000C9419050C9486000C9489050C94630596
:100050000C9486000C9486000C9486000C94860008
:100060000C94BB050C9486001F1C1F1E1F1E1F1F17
:100070001E1F1E00000000250028002B00040404A1
:100080000404040404020202020202030303030341
:10009000030102040810204080010204081020011E
:1000A0000204081020000000080002010000030400
:1000B00007000000000000000000DA0611241FBE47
:1000C000CFEFD8E0DEBFCDBF22E0ACE7B1E001C0AA
:1000D0001D92AE3EB207E1F711E0A0E0B1E0ECEB1B
:1000E000F6E102C005900D92AC37B107D9F710E0E8
:1000F000CEE5D0E004C02197FE010E94310ACD3543
:10010000D107C9F70E9413070C945C0B0C940000F4
:1001100090E0FC01EB55FF4F2491FC01EF56FF4F9F
:100120003491FC01E358FF4FE491EE23C9F0222300
:1001300039F0233001F1A8F4213019F1223029F1EE
:10014000F0E0EE0FFF1FED58FF4FA591B4918FB770
:10015000F894EC91611126C030953E233C938FBFFB
:1001600008952730A9F02830C9F0243049F780914C
:1001700080008F7D03C0809180008F778093800006
:10018000DFCF84B58F7784BDDBCF84B58F7DFBCF88
:100190008091B0008F778093B000D2CF8091B00073
:1001A0008F7DF9CF3E2BDACF3FB7F8948091ED01E8
:1001B0009091EE01A091EF01B091F00126B5A89BBE
:1001C00005C02F3F19F00196A11DB11D3FBFBA2FE9
:1001D000A92F982F8827BC01CD01620F711D811DA9
:1001E000911D42E0660F771F881F991F4A95D1F72E
:1001F000089508950895AF92BF92CF92DF92EF9243
:10020000FF920F931F93CF93DF936C017B018B01C0
:10021000040F151FEB015E01AE18BF08C017D10710
:1002200059F06991D601ED91FC910190F081E02D9A
:10023000C6010995892B79F7C501DF91CF911F91EF
:100240000F91FF90EF90DF90CF90BF90AF90089507
:10025000FC01538D448D252F30E0842F90E0821BCC
:10026000930B541710F0CF96089501970895FC0151
:10027000918D828D981761F0A28DAE0FBF2FB11DA9
:100280005D968C91928D9F5F9F73928F90E0089501
:100290008FEF9FEF0895FC01918D828D981731F0BB
:1002A000828DE80FF11D858D90E008958FEF9FEF0F
:1002B0000895FC01918D228D892F90E0805C9F4FE5
:1002C000821B91098F739927089581E492E00E941F
:1002D000590121E0892B09F420E0822F089580E064
:1002E00090E0892B29F00E94650181110C94000097
:1002F0000895FC01A48DA80FB92FB11DA35ABF4FBB
:100300002C91848D90E001968F739927848FA68914
:10031000B7892C93A089B1898C91837080648C9368
:10032000938D848D981306C00288F389E02D808117
:100330008F7D80830895EF92FF920F931F93CF9349
:10034000DF93EC0181E0888F9B8D8C8D98131AC010
:10035000E889F989808185FF15C09FB7F894EE89F7
:10036000FF896083E889F989808183708064808354
:100370009FBF81E090E0DF91CF911F910F91FF909F
:10038000EF900895F62E0B8D10E00F5F1F4F0F7347
:100390001127E02E8C8D8E110CC00FB607FCFACF02
:1003A000E889F989808185FFF5CFCE010E94790126
:1003B000F1CFEB8DEC0FFD2FF11DE35AFF4FF082D3
:1003C0009FB7F8940B8FEA89FB8980818062CFCF39
:1003D000CF93DF93EC01888D8823B9F0AA89BB897C
:1003E000E889F9898C9185FD03C0808186FD0DC067
:1003F0000FB607FCF7CF8C9185FFF2CF808185FF88
:10040000EDCFCE010E947901E9CFDF91CF91089520
:1004100020919D01260F3327331F21323105ECF443
:1004200020911702FC0190E080E0243069F082E026
:100430000895A0919D012191AC0143585E4FA40FF6
:10044000B52FB11D2C930196861798F380919D01CD
:10045000680F60939D0180E0089581E008951092F7
:10046000170281E0809316021092F10161E082E1AF
:100470000E94880061E083E10E948800E9EBF0E0DF
:1004800080818E7F808380818D7F808388E48093CC
:10049000B80085E48093BC000895CF93DF9391E08A
:1004A00090937C018823B9F0C091B800D091BA0034
:1004B0008091BC008A7B8093BC0060E082E10E9456
:1004C000880060E083E10E9488000E942F02D093A0
:1004D000BA00C093B800DF91CF9108958F929F9298
:1004E000AF92BF92CF92DF92EF92FF920F931F9342
:1004F000CF93DF93D0914002D13208F0D7C0182FAC
:10050000C0913F020E94D4006B017C0180911702D0
:1005100081116BC082E080931702109316028FEF57
:100520008093150210921402D0931302AFE1B2E04F
:10053000E3EFF1E080E0D81391C01092F2018091D6
:10054000F201CC0FC82BC093F2018091F1018130F0
:1005500009F088C01092F1010E94D4006B017C0167
:100560008091F2018093BB008091190290911A0250
:10057000A0911B02B0911C02892B8A2B8B2BA1F01E
:100580000E94D4000091190210911A0220911B02BE
:1005900030911C026C197D098E099F0906171707F7
:1005A0002807390708F442C08091BC0083FDD8CFEA
:1005B00085EC8093BC000E94D4006B017C0180918B
:1005C0001702823009F450C0809115028F3F09F460
:1005D0006FC080911502803209F46CC080911502C1
:1005E000803309F469C084E026C08091190290919B
:1005F0001A02A0911B02B0911C02892B8A2B8B2B13
:1006000009F484CF0E94D4008090190290901A02BD
:10061000A0901B02B0901C026C197D098E099F09E5
:1006200086169706A806B90608F070CF80911802C2
:100630000E944D0285E010921E021092400210921C
:100640001D02DF91CF911F910F91FF90EF90DF90EE
:10065000CF90BF90AF909F908F9008959D91919370
:100660008F5F69CF85EEA5CF8091190290911A0214
:10067000A0911B02B0911C02892B8A2B8B2B09F4B1
:100680009ECF0E94D4000091190210911A0220916D
:100690001B0230911C026C197D098E099F090617F7
:1006A00017072807390708F08ACFC0CF81E0C3CFEA
:1006B00080E0C1CF82E0BFCF83E0BDCF0895E0915D
:1006C000C5018091C401E81730F4F0E0EA53FE4F11
:1006D000808190E008958FEF9FEF08959091C5017C
:1006E0008091C4012FEF3FEF981748F4E92FF0E015
:1006F000EA53FE4F208130E09F5F9093C501C9010E
:1007000008958091C4019091C501891B990B0895AA
:10071000CF92DF92EF92FF920F931F93CF93DF93CD
:100720007C01CB018A0120911D02222389F0EB017B
:100730006B01C40ED51ECC15DD0569F06991D7019A
:10074000ED91FC910190F081E02DC7010995F3CF67
:10075000642F0E940802C801DF91CF911F910F9171
:10076000FF90EF90DF90CF900895CF93DF931F928B
:10077000CDB7DEB7698320911D022223F9F02091C5
:100780004002203258F021E030E0FC013383228324
:1007900090E080E00F90DF91CF91089580911E024C
:1007A000E82FF0E0E15EFD4F998190838F5F8093A9
:1007B0001E028093400281E090E0ECCF61E0CE0128
:1007C00001960E940802F7CF90E080E00895CF9351
:1007D000DF93EC018B818823A1F0888191E09093D5
:1007E0001D0280933F0210921E021092400281E08F
:1007F0000E946E0291E0811190E0892FDF91CF91EC
:1008000008951092C5011092C40110921E02109218
:1008100040020E942F0289EF90E09093C3018093E1
:10082000C2018AEF90E09093C1018093C00181E002
:100830008B83CE010E94E703982F8111CECFDDCFAD
:10084000EF92FF920F931F93CF93DF93EC01698197
:100850003881432F50E02A81822F90E0E8E6F0E0D3
:1008600021E0261730F47491870F911D2F5F319688
:10087000F8CF633018F0337009F401966DE671E03B
:10088000469F9001479F300D569F300D11242150F7
:1008900031094D5F5F4F5695479556954795240F03
:1008A000351F280F391FA8E1B0E00E94000A2B81F4
:1008B0007B018C01E20EF11C011D111DA8019701A5
:1008C000ACE3B0E00E94F5092C817B018C01E20EC3
:1008D000F11C011D111DA80197010E94F509AB0132
:1008E000BC019D81892F90E0B0E0A0E080589C4B36
:1008F000A249B74C8A019B01080F191F2A1F3B1FF1
:10090000C901B801DF91CF911F910F91FF90EF9036
:100910000895FC0101900020E9F73197AF01481BD1
:10092000590BBC0181E492E00C94FB008F929F92E2
:10093000AF92BF920F931F93CF93DF93CDB7DEB7E4
:10094000A1970FB6F894DEBF0FBECDBF19A24230FB
:1009500008F44AE08E010F5D1F4F842E912CB12CBC
:10096000A12CA50194010E940F0AE62FB901CA012A
:10097000EA30F4F4E05DD801EE938D01232B242BB3
:10098000252B79F790E080E0109719F0CD010E94B7
:100990008904A1960FB6F894DEBF0FBECDBFDF91DC
:1009A000CF911F910F91BF90AF909F908F9008951E
:1009B000E95CE1CF682F70E090E080E04AE00C94C1
:1009C000960485ED8093BC008091190290911A02E3
:1009D000A0911B02B0911C020796A11DB11D23E03E
:1009E000B695A795979587952A95D1F72091BC0044
:1009F00024FD03C0109217020895409119025091EE
:100A00001A0260911B0270911C02452B462B472B4A
:100A100069F30097A105B10541F02AE22A95F1F7A3
:100A200000C00197A109B109E1CF809118020C948F
:100A30004D021F920F920FB60F9211242F933F93E6
:100A40008F939F93AF93BF938091E9019091EA01B7
:100A5000A091EB01B091EC013091E80123E0230F6C
:100A60002D3758F50196A11DB11D2093E801809303
:100A7000E9019093EA01A093EB01B093EC0180911E
:100A8000ED019091EE01A091EF01B091F00101967E
:100A9000A11DB11D8093ED019093EE01A093EF0194
:100AA000B093F001BF91AF919F918F913F912F91A2
:100AB0000F900FBE0F901F90189526E8230F0296F7
:100AC000A11DB11DD2CF1F920F920FB60F9211240C
:100AD0002F933F934F935F936F937F938F939F9346
:100AE000AF93BF93EF93FF9381E492E00E9479016B
:100AF000FF91EF91BF91AF919F918F917F916F91F6
:100B00005F914F913F912F910F900FBE0F901F90CB
:100B100018951F920F920FB60F9211242F938F9357
:100B20009F93EF93FF93E0915102F09152028081E5
:100B3000E0915702F091580282FD1BC09081809194
:100B40005A028F5F8F7320915B02821741F0E09110
:100B50005A02F0E0EF5BFD4F958F80935A02FF91B0
:100B6000EF919F918F912F910F900FBE0F901F903B
:100B700018958081F4CF1F920F920FB60F92112417
:100B80002F933F934F935F936F937F938F939F9395
:100B9000AF93BF93EF93FF938091B900887F803626
:100BA00009F44AC0F0F5883209F4A7C018F580317D
:100BB00009F49BC0B8F4882309F4F9C0883009F41B
:100BC00094C0FF91EF91BF91AF919F918F917F91D1
:100BD0006F915F914F913F912F910F900FBE0F90AA
:100BE0001F901895883109F488C0803251F780939E
:100BF000150214C0803409F49DC040F48033B9F369
:100C00008833F9F68093150285ECB0C0803509F47D
:100C100085C0883509F496C0883499F60E94E104AD
:100C2000D0CF883909F48CC038F5883729F050F4D2
:100C3000883611F0803729F683E0809317021092EE
:100C4000BF0157C0883809F47BC0803919F080385B
:100C500009F0B7CF8091BF01803208F071C0E091F8
:100C6000BF0181E08E0F8093BF018091BB00F0E057
:100C7000E156FE4F80833DC0803B39F0E0F4803A7E
:100C800009F479C0883A09F09CCF84E08093170278
:100C900010929E0110929D01E091C201F091C3015A
:100CA000099580919D0181110FC081E080939D0184
:100CB00010927D0109C0803C09F4A6CF883C09F45C
:100CC000A3CF883B09F07DCFE0919E0181E08E0F9C
:100CD00080939E01F0E0E358FE4F80818093BB003B
:100CE00090919E0180919D0129C08091F201809395
:100CF000BB0085EC8093BC0064CF9091140280917E
:100D00001302981758F5E091140281E08E0F80933A
:100D10001402F0E0ED50FE4F8081E9CFE091140223
:100D200081E08E0F809314028091BB00F0E0ED50C3
:100D3000FE4F808390911402809113029817C8F29D
:100D400085E8D8CFE091140281E08E0F80931402E1
:100D50008091BB00F0E0ED50FE4F80838091160241
:100D600081115CCF81E08093F10184EA8093BC0023
:100D70001092170226CF85EC8093BC0010921702C8
:100D80008091BF01803230F4E091BF01F0E0E15684
:100D9000FE4F10826091BF0170E0E091C001F091C0
:100DA000C1018FE991E009951092BF010ACF10921D
:100DB000150234CFE1E4F2E01382128288EE93E070
:100DC000A0E0B0E084839583A683B7832AE031E076
:100DD0003183208325EC30E03587248724EC30E014
:100DE0003787268720EC30E0318B208B21EC30E0F8
:100DF000338B228B22EC30E0358B248B26EC30E0D9
:100E0000378B268B118E128E138E148EEEEDF2E040
:100E10001382128284839583A683B7838CE191E049
:100E2000918380830895CF93DF93CDB7DEB72D975D
:100E30000FB6F894DEBF0FBECDBF789484B5826044
:100E400084BD84B5816084BD85B5826085BD85B56E
:100E5000816085BD80916E00816080936E001092EC
:100E60008100809181008260809381008091810067
:100E700081608093810080918000816080938000F8
:100E80008091B10084608093B1008091B000816056
:100E90008093B00080917A00846080937A00809182
:100EA0007A00826080937A0080917A0081608093DA
:100EB0007A0080917A00806880937A001092C10055
:100EC000E0915102F091520282E08083E0914D0264
:100ED000F0914E021082E0914F02F09150028FEC9F
:100EE000808310925902E0915502F091560286E0FB
:100EF0008083E0915302F09154028081806180836D
:100F0000E0915302F0915402808188608083E091E7
:100F10005302F0915402808180688083E0915302F3
:100F2000F091540280818F7D80838091E6019091C1
:100F3000E701009711F00E94D30A86E090E00E943A
:100F4000370A8C0188E6D8018C938EED92E01296D8
:100F50009C938E93119713961C92139780E290E0C6
:100F600015969C938E9314971093E7010093E601D6
:100F70001092C5011092C40110921E0210924002FC
:100F80000E942F0289EF90E09093C3018093C201E9
:100F90008AEF90E09093C1018093C00181E0F80155
:100FA0008383C8010E94E70387E0682E712C1982B1
:100FB000A090E601B090E701D50114968D919C9127
:100FC0001597892B09F422C111968D919C91129746
:100FD0002C9131E030931D0220933F0210921E02AB
:100FE00010924002DC01ED91FC910280F381E02D32
:100FF00041E050E0BE016F5F7F4F0995019709F016
:1010000005C180E00E946E02811100C1D12CC12C6B
:10101000F501848195817301EC18FD088E159F05FB
:1010200008F47C01D5010C910E94D4001B012C0115
:1010300080911702811173C01E2D113208F010E249
:10104000B1E0B093170221E0C3018E199F09C816C1
:10105000D90608F420E020931602EFEFE093150282
:10106000109214028FEF810F80931302F1E0F0933E
:10107000F2018091F201000F082B0093F2018091A0
:10108000F101813009F095C01092F1010E94D40065
:101090001B012C018091F2018093BB008091190209
:1010A00090911A02A0911B02B0911C02892B8A2BED
:1010B0008B2BA1F00E94D4002091190230911A02CA
:1010C00040911B0250911C02621973098409950911
:1010D000261737074807590708F442C08091BC001B
:1010E00083FDD8CF25EC2093BC000E94D4001B01C7
:1010F0002C0180911702813009F45FC080911402A5
:10110000811710F410911402A3EFB1E0E6ECF1E0C6
:1011100080E0811751F19D9191938F5FFACF80917B
:10112000190290911A02A0911B02B0911C02892B06
:101130008A2B8B2B09F47CCF0E94D40020911902BA
:1011400030911A0240911B0250911C0262197309DE
:1011500084099509261737074807590708F068CF0B
:10116000809118020E944D0210E01092C501109368
:10117000C4011E151F0409F049C001E010E00C0F66
:101180001D1F0C0D1D1D4801C801881999098E15D8
:101190009F05A8F5D50111968D919C91DC01ED91EB
:1011A000FC910284F385E02D0995F80181938F016C
:1011B000EBCF85EE8093BC0098CF8091190290917F
:1011C0001A02A0911B02B0911C02892B8A2B8B2B37
:1011D00009F48FCF0E94D4002091190230911A0295
:1011E00040911B0250911C026219730984099509F0
:1011F000261737074807590708F07BCFB1CFCE0C29
:10120000DF1CF7E0CF16D10408F402CF69816F77B5
:101210007A812B813D818E819F81E92FF0E044E02E
:10122000F595E7954A95E1F74E2F440F440FE41BDF
:10123000EE0FE90FE887482F50E0E4E05595479519
:10124000EA95E1F7942F990F990F491B440F480F26
:101250004987832F90E0F4E095958795FA95E1F71B
:10126000982F990F990F891B880F830F8A87422F18
:1012700050E0A4E055954795AA95E1F7842F880F93
:10128000880F481B440F420F4B87272F30E0B4E0F4
:1012900035952795BA95E1F7822F880F880F281B7F
:1012A000220F270F2C87862F90E014E095958795C5
:1012B0001A95E1F7982F990F990F891B880F860FC0
:1012C0008D878AE291E00E9489048A850E94DA046F
:1012D00081E391E00E94890489850E94DA0481E318
:1012E00091E00E948904688570E06053784F90E037
:1012F00080E04AE00E94960483E391E00E94890422
:1013000087E391E00E9489048B850E94DA048EE3D2
:1013100091E00E9489048C850E94DA048EE391E0BA
:101320000E9489048D850E94DA0480E491E00E9485
:10133000890483E491E00E948904CE0108960E940A
:1013400020044AE00E94960487E691E00E94890406
:10135000CE0108960E94200420E831E541E050E0EB
:101360000E940F0ACA01B9014AE00E94960485E76B
:1013700091E00E94890480E491E00E94890480E465
:1013800091E00E9489040E94D4004B015C0108EBAB
:10139000C02E0BE0D02EE12CF12C0E94D400681955
:1013A00079098A099B09683E734081059105A8F374
:1013B00021E0C21AD108E108F10888EE880E83E026
:1013C000981EA11CB11CC114D104E104F10429F739
:1013D000E0E0F0E0EF2B09F4EACD0E9465018823FC
:1013E00009F4E5CD0E940000E2CD0E94000AA59F0D
:1013F000900DB49F900DA49F800D911D1124089510
:10140000A29FB001B39FC001A39F700D811D112445
:10141000911DB29F700D811D1124911D0895A1E2AF
:101420001A2EAA1BBB1BFD010DC0AA1FBB1FEE1F5E
:10143000FF1FA217B307E407F50720F0A21BB30BA9
:10144000E40BF50B661F771F881F991F1A9469F725
:1014500060957095809590959B01AC01BD01CF0181
:101460000895EE0FFF1F0590F491E02D09940F935E
:101470001F93CF93DF938230910510F482E090E0C8
:10148000E091EC02F091ED0230E020E0B0E0A0E06D
:10149000309799F42115310509F44AC0281B390BFE
:1014A00024303105D8F58A819B816115710589F158
:1014B000FB0193838283FE0111C04081518102812F
:1014C000138148175907E0F04817590799F4109706
:1014D00061F012960C93129713961C933296CF01DB
:1014E000DF91CF911F910F9108950093EC0210931B
:1014F000ED02F4CF2115310551F04217530738F0B2
:10150000A901DB019A01BD01DF01F801C1CFEF01A3
:10151000F9CF9093ED028093EC02CDCFFE01E20F64
:10152000F31F819391932250310939832883D7CFB8
:101530002091EA023091EB02232B41F42091020129
:10154000309103013093EB022093EA0220910001D5
:10155000309101012115310541F42DB73EB740917D
:10156000040150910501241B350BE091EA02F09132
:10157000EB02E217F307A0F42E1B3F0B28173907E5
:1015800078F0AC014E5F5F4F2417350748F04E0FDF
:101590005F1F5093EB024093EA02819391939FCF98
:1015A000F0E0E0E09CCFCF93DF930097E9F0FC01FF
:1015B000329713821282A091EC02B091ED02ED01FC
:1015C00030E020E01097A1F420813181820F931F39
:1015D0002091EA023091EB022817390709F061C027
:1015E000F093EB02E093EA02DF91CF910895EA01D4
:1015F000CE17DF07E8F54A815B819E014115510551
:10160000B1F7E901FB83EA8349915991C40FD51FD2
:10161000EC17FD0761F4808191810296840F951F7C
:10162000E90199838883828193819B838A83F0E097
:10163000E0E012968D919C9113970097B9F52D914A
:101640003C911197CD010296820F931F2091EA02DF
:101650003091EB022817390739F6309751F510927F
:10166000ED021092EC02B093EB02A093EA02BCCF21
:10167000D383C28340815181840F951FC817D90736
:1016800061F44E5F5F4F88819981480F591F5183E4
:1016900040838A819B81938382832115310509F0E0
:1016A000B0CFF093ED02E093EC029ECFFD01DC01A0
:0C16B000C0CF13821282D7CFF894FFCF76
:1016BC000000EE028000000000009B01FB002801EE
:1016CC00E801590137014B0100000000B503880304
:1016DC00E4035E0381036E035F03446174613A208B
:1016EC00002F0020652000486F72613A20003A00FC
:1016FC000D0A00446174612028756E697874696DF7
:10170C0065292064657364652030312F30312F31A9
:10171C00393730203D200020736567756E646F7318
:0C172C00206F75200020646961730000CC
:00000001FF
