:100000000C9435000C945D000C945D000C945D0024
:100010000C945D000C945D000C945D000C945D00EC
:100020000C945D000C945D000C945D000C945D00DC
:100030000C945D000C945D000C945D000C945D00CC
:100040000C94A7020C945D000C9417030C94F1021D
:100050000C945D000C945D000C945D000C945D00AC
:100060000C945D000C945D00970411241FBECFEF2B
:10007000D8E0DEBFCDBF22E0ACE0B2E001C01D920F
:10008000A23BB207E1F712E0A0E0B1E0E0E1FAE064
:1000900002C005900D92AC30B107D9F710E0C5E36E
:1000A000D0E004C02197FE010E940005C433D107AF
:1000B000C9F70E9449030C9406050C9400008E5069
:1000C000806480937C0080917A00806480937A00C1
:1000D00080917A0086FDFCCF809178009091790024
:1000E00008953FB7F89480910D0290910E02A0916F
:1000F0000F02B091100226B5A89B05C02F3F19F042
:100100000196A11DB11D3FBFBA2FA92F982F882797
:10011000BC01CD01620F711D811D911D42E0660F72
:10012000771F881F991F4A95D1F70895AF92BF9204
:10013000CF92DF92EF92FF920F931F93CF93DF93B3
:100140006C017B018B01040F151FEB015E01AE18E2
:10015000BF08C017D10759F06991D601ED91FC9104
:100160000190F081E02DC6010995892B79F7C50131
:10017000DF91CF911F910F91FF90EF90DF90CF9083
:10018000BF90AF900895FC01538D448D252F30E032
:10019000842F90E0821B930B541710F0CF96089594
:1001A00001970895FC01918D828D981761F0A28DC1
:1001B000AE0FBF2FB11D5D968C91928D9F5F9F7387
:1001C000928F90E008958FEF9FEF0895FC01918D3D
:1001D000828D981731F0828DE80FF11D858D90E0AA
:1001E00008958FEF9FEF08952FB7F8948091110233
:1001F00090911202A0911302B09114022FBF80932C
:100200001D0290931E02A0931F02B093200285E16D
:1002100092E00E94E60097FF26C02FB7F8948091E5
:10022000110290911202A0911302B09114022FBFFB
:1002300040911D0250911E0260911F027091200298
:10024000841B950BA60BB70B4091190250911A0213
:1002500060911B0270911C0284179507A607B707CF
:10026000B0F28FEF9FEF0895FC01918D228D892FC1
:1002700090E0805C9F4F821B91098F7399270895AE
:1002800085E192E00E94340121E0892B09F420E00D
:10029000822F089580E090E0892B29F00E94400190
:1002A00081110C9400000895FC01A48DA80FB92FB2
:1002B000B11DA35ABF4F2C91848D90E001968F738E
:1002C0009927848FA689B7892C93A089B1898C91AD
:1002D000837080648C93938D848D981306C00288FC
:1002E000F389E02D80818F7D80830895EF92FF92C6
:1002F0000F931F93CF93DF93EC0181E0888F9B8D49
:100300008C8D98131AC0E889F989808185FF15C002
:100310009FB7F894EE89FF896083E889F989808125
:100320008370806480839FBF81E090E0DF91CF91F4
:100330001F910F91FF90EF900895F62E0B8D10E016
:100340000F5F1F4F0F731127E02E8C8D8E110CC085
:100350000FB607FCFACFE889F989808185FFF5CFD0
:10036000CE010E945401F1CFEB8DEC0FFD2FF11D5A
:10037000E35AFF4FF0829FB7F8940B8FEA89FB890D
:1003800080818062CFCFCF93DF93EC01888D88236B
:10039000B9F0AA89BB89E889F9898C9185FD03C0E8
:1003A000808186FD0DC00FB607FCF7CF8C9185FFCD
:1003B000F2CF808185FFEDCFCE010E945401E9CFBD
:1003C000DF91CF910895FC0101900020E9F731976A
:1003D000AF01481B590BBC0185E192E00C949600DB
:1003E000CF93DF930E94E301EC0182E191E00E9450
:1003F000E3018C0F9D1FDF91CF91089585E191E07E
:100400000E94F0018DEA91E00E94F00183E391E007
:100410000E94F0018AE491E00E94F00181E691E0FF
:100420000E94F00188E791E00E94F0018DEA91E0DE
:100430000E94F0018FE891E00E94F00184E191E0D8
:100440000E94F00184E191E00E94F00184E191E0DA
:100450000C94F0018F929F92AF92BF92CF92DF9255
:10046000EF92FF920F931F93CF93DF93CDB7DEB739
:10047000A1970FB6F894DEBF0FBECDBF6C01990FE8
:10048000EE08FF08F7FE41C06DE285E192E00E94B0
:1004900076018C0122273327A9012C193D094E0929
:1004A0005F0919A2CE0181967C019AE0892E912CD8
:1004B000A12CB12CCA01B901A50194010E94DE044E
:1004C000605DF70162937F012115310541055105FA
:1004D00089F790E080E0309719F0CF010E94E301A6
:1004E000800F911FA1960FB6F894DEBF0FBECDBF4F
:1004F000DF91CF911F910F91FF90EF90DF90CF9000
:10050000BF90AF909F908F900895A701960119A278
:100510008E010F5D1F4F8AE0C82ED12CE12CF12CEB
:10052000CA01B901A70196010E94DE04605DF801CD
:1005300062938F01211531054105510589F790E03E
:1005400080E0309779F2CF010E94E301CBCF1F9278
:100550000F920FB60F9211242F933F938F939F9377
:10056000AF93BF938091110290911202A091130258
:10057000B091140230910C0223E0230F2D3758F56F
:100580000196A11DB11D20930C028093110290933E
:100590001202A0931302B093140280910D02909165
:1005A0000E02A0910F02B09110020196A11DB11D83
:1005B00080930D0290930E02A0930F02B09310024D
:1005C000BF91AF919F918F913F912F910F900FBE4F
:1005D0000F901F90189526E8230F0296A11DB11DBC
:1005E000D2CF1F920F920FB60F9211242F933F93E9
:1005F0004F935F936F937F938F939F93AF93BF932B
:10060000EF93FF9385E192E00E945401FF91EF91F7
:10061000BF91AF919F918F917F916F915F914F911A
:100620003F912F910F900FBE0F901F9018951F9222
:100630000F920FB60F9211242F938F939F93EF93E6
:10064000FF93E0912502F09126028081E0912B0238
:10065000F0912C0282FD1BC0908180912E028F5F51
:100660008F7320912F02821741F0E0912E02F0E06B
:10067000EB5EFD4F958F80932E02FF91EF919F913E
:100680008F912F910F900FBE0F901F901895808122
:10069000F4CF789484B5826084BD84B5816084BDD4
:1006A00085B5826085BD85B5816085BD80916E0010
:1006B000816080936E001092810080918100826041
:1006C000809381008091810081608093810080917E
:1006D00080008160809380008091B100846080936D
:1006E000B1008091B00081608093B00080917A0069
:1006F000846080937A0080917A00826080937A008F
:1007000080917A00816080937A0080917A0080687D
:1007100080937A001092C100E0912502F0912602A8
:1007200082E08083E0912102F09122021082E09128
:100730002302F09124028FEC808310922D02E0912D
:100740002902F0912A0286E08083E0912702F0914D
:100750002802808180618083E0912702F091280245
:10076000808188608083E0912702F0912802808157
:1007700080688083E0912702F091280280818F7D3C
:1007800080830E94FE01C0E0D0E085E192E00E94FB
:100790003401181619060CF0BFC00E94F400FC01C9
:1007A00097FD56C08D32910521F0C0970A9708F049
:1007B00048C0C12CD12C760110E0E130F105D9F010
:1007C000ED32F10509F442C0CF01C0970A9798F4C1
:1007D000AAE0B0E0A70196010E94C4046F01FF0FD8
:1007E000EE08FF08C60ED71EE81EF91E20E3C21A47
:1007F000D108E108F10885E192E00E94D2000E9450
:10080000F400FC01C0970A97C0F2E130F105A9F2AB
:10081000112341F0F094E094D094C094C11CD11CF9
:10082000E11CF11C8FE991E00E94F00181E0C81603
:10083000D10409F465C084F4CD28E9F083EE91E099
:1008400025C085E192E00E94D200A7CF11E0D3CF6E
:10085000C12CD12C7601E6CF82E0C816D10409F470
:1008600055C023E0C216D10449F78DED91E00E94F6
:10087000E30181E105C08BEC91E00E94E3018EE091
:100880000E945F000E942A0284E191E00E94F00130
:100890008FE991E00E94F0010E9471004B015C0120
:1008A00088EBC82E8BE0D82EE12CF12C0E94710031
:1008B000681979098A099B09683E73408105910589
:1008C000A8F381E0C81AD108E108F10828EE820EE9
:1008D00023E0921EA11CB11CC114D104E104F10457
:1008E00029F784E191E00E94F00184E191E00E9407
:1008F000F00184E191E00E94F0010E94FE0145CFE9
:1009000081ED91E00E94E3018FE0BACF87ED91E0A5
:100910000E94E30180E1B4CF209709F436CF0E9412
:100920004001882309F431CF0E9400002ECFE5E179
:10093000F2E01382128288EE93E0A0E0B0E08483BC
:100940009583A683B78384E091E09183808385ECCF
:1009500090E09587848784EC90E09787868780EC89
:1009600090E0918B808B81EC90E0938B828B82EC7A
:1009700090E0958B848B86EC90E0978B868B118E24
:10098000128E138E148E08950E94CF04A59F900D91
:10099000B49F900DA49F800D911D11240895A29FD6
:1009A000B001B39FC001A39F700D811D1124911D43
:1009B000B29F700D811D1124911D0895A1E21A2E80
:1009C000AA1BBB1BFD010DC0AA1FBB1FEE1FFF1FF3
:1009D000A217B307E407F50720F0A21BB30BE40B43
:1009E000F50B661F771F881F991F1A9469F760958A
:1009F0007095809590959B01AC01BD01CF01089544
:100A0000EE0FFF1F0590F491E02D0994F894FFCFAD
:100A10000000000076019600C300C3013401D2003B
:100A2000E6000D0A00202020202020506F72746103
:100A30007320416E616C6F676963617320202020B1
:100A4000202000302E20506F72746120416E616C46
:100A50006F676963612041302E00312E20506F7224
:100A6000746120416E616C6F676963612041312E52
:100A700000322E20506F72746120416E616C6F677E
:100A80006963612041322E00332E20506F727461F1
:100A900020416E616C6F676963612041332E0053A2
:100AA0007561206573636F6C68613A203F3F002D6C
:100AB0002D2D2D2D2D2D2D2D2D2D2D2D2D2D2D2D66
:100AC0002D2D2D2D2D2D2D2D2D2D2D2D2D2D2D2D56
:100AD0002D2D2D2D2D2D2D2D2D2D004130203D2066
:100AE000004131203D20004132203D200041332093
:100AF0003D2000566F6365206573636F6C68657594
:100B000020756D61206F7063616F206E616F20646E
:0C0B10006973706F6E6976656C2E0000D2
:00000001FF
