:100000000C9462000C948A000C948A000C948A0070
:100010000C948A000C948A000C948A000C948A0038
:100020000C948A000C948A000C948A000C948A0028
:100030000C948A000C948A000C948A000C948A0018
:100040000C9467040C948A000C94D7040C94B104AB
:100050000C948A000C948A000C948A000C948A00F8
:100060000C948A000C948A000000000023002600F3
:10007000290000000000240027002A0000000000E2
:10008000250028002B0004040404040404040202D4
:100090000202020203030303030301020408102007
:1000A0004080010204081020010204081020000012
:1000B0000008000201000003040700000000000027
:1000C0000000090511241FBECFEFD8E0DEBFCDBF71
:1000D00011E0A0E0B1E0ECE1FEE002C005900D927D
:1000E000AC34B107D9F722E0ACE4B1E001C01D9215
:1000F000AC30B207E1F710E0C2E6D0E004C02197CF
:10010000FE010E94D006C136D107C9F70E947005D2
:100110000C940C070C940000833081F028F481309B
:1001200099F08230A9F008958730A9F08830C9F09D
:100130008430B1F4809180008F7D03C08091800075
:100140008F7780938000089584B58F7784BD08955C
:1001500084B58F7DFBCF8091B0008F778093B00006
:1001600008958091B0008F7DF9CF1F93CF93DF93D7
:10017000282F30E0F901E255FF4F8491F901E6564E
:10018000FF4FD491F901EA57FF4FC491CC23A9F056
:10019000162F81110E948C00EC2FF0E0EE0FFF1F54
:1001A000E458FF4FA591B4918FB7F894EC911111D9
:1001B00008C0D095DE23DC938FBFDF91CF911F91D4
:1001C0000895DE2BF8CFCF93DF93EC018091FA01F5
:1001D0009091FB01029749F4C130D10509F43BC06D
:1001E0006CF560E0209709F437C08091FA01909196
:1001F000FB01049749F4C130D10509F45CC00CF04F
:1002000037C0209709F442C08091FA019091FB0118
:10021000059709F0E5C0CA30D10508F0E1C0FE013C
:10022000EC5EFE4F0C94D00673017F019001A60195
:10023000C101C301CA01D601E701EE01C230D105F7
:10024000A9F060E0C330D10581F68091FE010E94E3
:10025000B50060E006C061E08091FE010E94B5003B
:1002600061E0809100020E94B500BFCF61E0EDCF58
:10027000C230D10539F1C330D10509F0C5CF61E0F5
:100280008091FE010E94B50060E022C061E0809193
:10029000FE010E94B50060E0809100020E94B5005E
:1002A00061E0809102020E94B50060E0809104024A
:1002B0000E94B500A9CF60E08091FE010E94B500C8
:1002C00061E0EACF60E08091FE010E94B50061E04C
:1002D000809100020E94B50060E0809102020E94BD
:1002E000B50061E0E3CF60E08091FE010E94B500BF
:1002F00061E0809100020E94B50061E00BC060E007
:100300008091FE010E94B50061E0809100020E9490
:10031000B50060E0809102020E94B50060E010C06C
:1003200060E08091FE010E94B50061E080910002D2
:100330000E94B50060E0809102020E94B50061E079
:10034000809104020E94B50061E015C060E08091D8
:10035000FE010E94B50061E0809100020E94B5009C
:1003600060E0809102020E94B50061E08091040289
:100370000E94B50060E080910602DF91CF910C945D
:10038000B50061E0E4CF61E08091FE010E94B5001C
:1003900060E0E2CF61E08091FE010E94B50060E084
:1003A000809100020E94B50061E0DBCF61E08091A6
:1003B000FE010E94B50060E0809100020E94B5003D
:1003C00061E0809102020E94B50060E0CFCF61E061
:1003D0008091FE010E94B50060E08BCF60E0F8CF15
:1003E000DF91CF910895CF93DF9390E0FC01E65623
:1003F000FF4F24918A579F4FFC0184918823C9F0B5
:1004000090E0880F991FFC01EE58FF4FA591B49121
:10041000FC01E458FF4FC591D49161110DC09FB705
:10042000F8948C91209582238C93888128232883AB
:100430009FBFDF91CF910895623051F49FB7F89438
:100440003C91822F809583238C93E8812E2BEFCFD4
:100450008FB7F894EC912E2B2C938FBFEACF8E5050
:10046000806480937C0080917A00806480937A001D
:1004700080917A0086FDFCCF809178009091790080
:1004800008953FB7F8948091510190915201A09145
:100490005301B091540126B5A89B05C02F3F19F018
:1004A0000196A11DB11D3FBFBA2FA92F982F8827F4
:1004B000BC01CD01620F711D811D911D42E0660FCF
:1004C000771F881F991F4A95D1F708954F925F9221
:1004D0006F927F928F929F92AF92BF92EF92FF9214
:1004E0000F931F93CF93DF93EC0197FF04C0CC27AA
:1004F000DD27C81BD90B181619060CF061C081E066
:1005000090E09093F3018093F20104E010E08AE020
:10051000E82EF12C209709F46FC00E9441028090D0
:10052000080290900902A0900A02B0900B022B01E1
:100530003C01481859086A087B088090F4019090A3
:10054000F501A090F601B090F701481459046A042F
:100550007B0400F3609308027093090280930A02FF
:1005600090930B028091FC019091FD012091F2018A
:100570003091F3012130310559F501969093FD0139
:100580008093FC012091F8013091F90182179307C3
:1005900021F41092FD011092FC0121978091FC0141
:1005A0009091FD012091FA013091FB01B7012530B6
:1005B000310509F0B8010E949D060E94E300AACF10
:1005C000892B09F4A2CF1092F3011092F2019DCF72
:1005D000892B41F48091F8019091F9019093FD01EC
:1005E0008093FC018091FC019091FD010197909313
:1005F000FD018093FC01D1CFDF91CF911F910F912D
:10060000FF90EF90BF90AF909F908F907F906F90F2
:100610005F904F9008958F929F92AF92BF92CF922A
:10062000DF92EF92FF924B015C010E9441026B014D
:100630007C010E9441026C197D098E099F09683E68
:10064000734081059105A8F321E0821A9108A10861
:10065000B10888EEC80E83E0D81EE11CF11C81149D
:100660009104A104B10429F7FF90EF90DF90CF909F
:10067000BF90AF909F908F900895AF92BF92CF920E
:10068000DF92EF92FF920F931F93CF93DF936C0152
:100690007B018B01040F151FEB015E01AE18BF0833
:1006A000C017D10759F06991D601ED91FC910190E5
:1006B000F081E02DC6010995892B79F7C501DF91FD
:1006C000CF911F910F91FF90EF90DF90CF90BF904F
:1006D000AF900895FC01538D448D252F30E0842F79
:1006E00090E0821B930B541710F0CF96089501975A
:1006F0000895FC01918D828D981761F0A28DAE0F47
:10070000BF2FB11D5D968C91928D9F5F9F73928FCD
:1007100090E008958FEF9FEF0895FC01918D828DF9
:10072000981731F0828DE80FF11D858D90E00895C6
:100730008FEF9FEF0895FC01918D228D892F90E01E
:10074000805C9F4F821B91098F739927089585E5DF
:1007500091E00E949B0321E0892B09F420E0822F85
:10076000089580E090E0892B29F00E94A703811171
:100770000C9400000895FC01A48DA80FB92FB11DA1
:10078000A35ABF4F2C91848D90E001968F739927C7
:10079000848FA689B7892C93A089B1898C918370A5
:1007A00080648C93938D848D981306C00288F3899E
:1007B000E02D80818F7D80830895EF92FF920F93CB
:1007C0001F93CF93DF93EC0181E0888F9B8D8C8DFD
:1007D00098131AC0E889F989808185FF15C09FB7F1
:1007E000F894EE89FF896083E889F98980818370B4
:1007F000806480839FBF81E090E0DF91CF911F9163
:100800000F91FF90EF900895F62E0B8D10E00F5F83
:100810001F4F0F731127E02E8C8D8E110CC00FB659
:1008200007FCFACFE889F989808185FFF5CFCE01F1
:100830000E94BB03F1CFEB8DEC0FFD2FF11DE35AAE
:10084000FF4FF0829FB7F8940B8FEA89FB89808174
:100850008062CFCFCF93DF93EC01888D8823B9F0EE
:10086000AA89BB89E889F9898C9185FD03C08081BB
:1008700086FD0DC00FB607FCF7CF8C9185FFF2CF38
:10088000808185FFEDCFCE010E94BB03E9CFDF91D0
:10089000CF910895CF93DF93FC0101900020E9F7F9
:1008A0003197AF01481B590BBC0185E591E00E94CF
:1008B0003D03EC0142E050E064E171E085E591E048
:1008C0000E943D038C0F9D1FDF91CF9108951F92D1
:1008D0000F920FB60F9211242F933F938F939F93F4
:1008E000AF93BF9380914D0190914E01A0914F0124
:1008F000B091500130914C0123E0230F2D3758F572
:100900000196A11DB11D20934C0180934D01909340
:100910004E01A0934F01B0935001809151019091ED
:100920005201A0915301B09154010196A11DB11D36
:100930008093510190935201A0935301B0935401BD
:10094000BF91AF919F918F913F912F910F900FBECB
:100950000F901F90189526E8230F0296A11DB11D38
:10096000D2CF1F920F920FB60F9211242F933F9365
:100970004F935F936F937F938F939F93AF93BF93A7
:10098000EF93FF9385E591E00E94BB03FF91EF9108
:10099000BF91AF919F918F917F916F915F914F9197
:1009A0003F912F910F900FBE0F901F9018951F929F
:1009B0000F920FB60F9211242F938F939F93EF9363
:1009C000FF93E0916501F09166018081E0916B01F8
:1009D000F0916C0182FD1BC0908180916E018F5F50
:1009E0008F7320916F01821741F0E0916E01F0E06A
:1009F000EB5AFE4F958F80936E01FF91EF919F917F
:100A00008F912F910F900FBE0F901F90189580819E
:100A1000F4CFCF93DF93E5E5F1E01382128288EE05
:100A200093E0A0E0B0E084839583A683B78386E05B
:100A300091E09183808385EC90E09587848784ECB6
:100A400090E09787868780EC90E0918B808B81EC9B
:100A500090E0938B828B82EC90E0958B848B86EC7C
:100A600090E0978B868B118E128E138E148E809150
:100A7000000190910101C2EFD1E01B861A86198214
:100A800018821E8A1F8A188E198E9F838E8388E093
:100A900090E09D878C8789E090E09F878E878AE031
:100AA00090E0998B888B8BE090E09B8B8A8B61E048
:100AB00088E00E94F30161E08E850E94F30161E00D
:100AC00088890E94F30161E08A890E94F3011D8AEE
:100AD0001C8A84E090E099878887DF91CF91089500
:100AE000789484B5826084BD84B5816084BD85B509
:100AF000826085BD85B5816085BD80916E00816015
:100B000080936E00109281008091810082608093BA
:100B100081008091810081608093810080918000BC
:100B20008160809380008091B10084608093B100E7
:100B30008091B00081608093B00080917A008460E1
:100B400080937A0080917A00826080937A0080910D
:100B50007A00816080937A0080917A008068809327
:100B60007A001092C10060E08EE00E94F30160E024
:100B70008FE00E94F30162E082E00E94F301209185
:100B8000F8013091F901032E000C440B550B60E085
:100B900077E883E993E00E94B106CA01B9012EE12A
:100BA00030E040E050E00E94B1062093F401309321
:100BB000F5014093F6015093F701E0916501F09142
:100BC000660182E08083E0916101F0916201108210
:100BD000E0916301F09164018FEC808310926D01CC
:100BE000E0916901F0916A0186E08083E0916701FC
:100BF000F0916801808180618083E0916701F091CC
:100C00006801808188608083E0916701F0916801CC
:100C1000808180688083E0916701F0916801808124
:100C20008F7D8083C0EBD0E00CE910E048E8E42E33
:100C300040E0F42E50E0C52E50E0D52E8FE00E940B
:100C40002F025C018EE00E942F028C3221E092077D
:100C50000CF047C087E191E00E944A0480910001B6
:100C60009091010197FD01969595879590930101CB
:100C70008093000168EE73E080E090E00E940B0337
:100C8000FDEBAF16F2E0BF060CF439C08CE291E048
:100C90000E944A04809100019091010191958195F3
:100CA00091090E94660264EF71E080E090E00E948A
:100CB0000B03FE018491F801A490F701B490B110E8
:100CC0002CC087E491E00E944A04C114D10409F4C5
:100CD000B5CF0E94A703882309F4B0CF0E9400007B
:100CE000ADCF8D3B924064F282E291E00E944A04D3
:100CF0008091000190910101880F991FB7CF2CE2DC
:100D0000A21621E0B206ACF68AE391E00E944A0402
:100D10008091000190910101C4CF81110E948C004B
:100D2000EB2DF0E0EE0FFF1FE859FF4FA591B491B6
:100D30008C91A82209F4C5CFC8CF97FB072E16F4D3
:100D4000009407D077FD09D00E94D60607FC05D095
:100D50003EF4909581959F4F0895709561957F4FD2
:100D60000895052E97FB1EF400940E94C80657FDB7
:100D700007D00E94EA0607FC03D04EF40C94C80684
:100D800050954095309521953F4F4F4F5F4F0895B7
:100D900090958095709561957F4F8F4F9F4F0895E7
:100DA000EE0FFF1F0590F491E02D0994AA1BBB1BC9
:100DB00051E107C0AA1FBB1FA617B70710F0A61B5B
:100DC000B70B881F991F5A95A9F780959095BC017C
:100DD000CD010895A1E21A2EAA1BBB1BFD010DC077
:100DE000AA1FBB1FEE1FFF1FA217B307E407F507DB
:100DF00020F0A21BB30BE40BF50B661F771F881FB7
:100E0000991F1A9469F760957095809590959B014C
:0C0E1000AC01BD01CF010895F894FFCFA4
:100E1C00050000000000DD033D036A032A049B0368
:100E2C0079038D030D0A005061726120426169786B
:100E3C006F00506172612043696D61005061726195
:100E4C002045737175657264610050617261204454
:0C0E5C006972656974610053656C0000E8
:00000001FF
