:100000000C9462000C948A000C948A000C948A0070
:100010000C948A000C948A000C948A000C948A0038
:100020000C948A000C948A000C948A000C948A0028
:100030000C948A000C948A000C948A000C948A0018
:100040000C94EC030C948A000C948A000C948A00A3
:100050000C948A000C948A000C948A000C948A00F8
:100060000C9436040C948A00000000002400270041
:100070002A000000000023002600290000000000E4
:10008000250028002B0004040404040404040202D4
:100090000202020203030303030301020408102007
:1000A0004080010204081020010204081020000012
:1000B0000008000201000003040700000000000027
:1000C0000000550511241FBECFEFD8E0DEBFCDBF25
:1000D00011E0A0E0B1E0E4E5FDE002C005900D9282
:1000E000AC35B107D9F722E0ACE5B1E001C01D9213
:1000F000A733B207E1F710E0C2E6D0E004C02197D1
:10010000FE010E94A206C136D107C9F70E947505FB
:100110000C94A8060C940000833081F028F4813000
:1001200099F08230A9F008958730A9F08830C9F09D
:100130008430B1F4809180008F7D03C08091800075
:100140008F7780938000089584B58F7784BD08955C
:1001500084B58F7DFBCF8091B0008F778093B00006
:1001600008958091B0008F7DF9CF1F93CF93DF93D7
:10017000282F30E0F901E255FF4F8491F901E6564E
:10018000FF4FD491F901EA57FF4FC491CC23A9F056
:10019000162F81110E948C00EC2FF0E0EE0FFF1F54
:1001A000E458FF4FA591B4918FB7F894EC911111D9
:1001B00008C0D095DE23DC938FBFDF91CF911F91D4
:1001C0000895DE2BF8CF3FB7F89480911B029091F1
:1001D0001C02A0911D02B0911E0226B5A89B05C06D
:1001E0002F3F19F00196A11DB11D3FBFBA2FA92FB6
:1001F000982F8827BC01CD01620F711D811D911DB3
:1002000042E0660F771F881F991F4A95D1F708951E
:100210008F929F92AF92BF92CF92DF92EF92FF9216
:100220004B015C010E94E3006B017C010E94E30032
:100230006C197D098E099F09683E734081059105FF
:10024000A8F321E0821A9108A108B10888EEC80E2F
:1002500083E0D81EE11CF11C81149104A104B104B7
:1002600029F7FF90EF90DF90CF90BF90AF909F90D5
:100270008F90089508950895AF92BF92CF92DF9224
:10028000EF92FF920F931F93CF93DF936C017B014B
:100290008B01040F151FEB015E01AE18BF08C017DC
:1002A000D10759F06991D601ED91FC910190F0814F
:1002B000E02DC6010995892B79F7C501DF91CF9112
:1002C0001F910F91FF90EF90DF90CF90BF90AF9074
:1002D00008952091C401260F3327331F21323105A1
:1002E000ECF42091E801FC0190E080E0243069F01A
:1002F00082E00895A091C4012191AC014C555E4F5C
:10030000A40FB52FB11D2C930196861798F38091F9
:10031000C401680F6093C40180E0089581E00895EE
:100320001092E80181E08093EA011092E90161E016
:1003300082E10E94B50061E083E10E94B500E9EB33
:10034000F0E080818E7F808380818D7F808388E450
:100350008093B80085E48093BC000895CF93DF9329
:1003600091E09093A3018823B9F0C091B800D09197
:10037000BA008091BC008A7B8093BC0060E082E17F
:100380000E94B50060E083E10E94B5000E949001E8
:10039000D093BA00C093B800DF91CF91089508952B
:1003A000E091150280911402E81730F4F0E0E25871
:1003B000FE4F808190E008958FEF9FEF0895909118
:1003C0001502809114022FEF3FEF981748F4E92FA0
:1003D000F0E0E258FE4F208130E09F5F90931502DD
:1003E000C90108958091140290911502891B990BFF
:1003F0000895CF92DF92EF92FF920F931F93CF93C6
:10040000DF937C01CB018A0120917D01222389F0B9
:10041000EB016B01C40ED51ECC15DD0569F06991A9
:10042000D701ED91FC910190F081E02DC701099574
:10043000F3CF642F0E946901C801DF91CF911F9112
:100440000F91FF90EF90DF90CF900895CF93DF93BF
:100450001F92CDB7DEB7698320917D012223F9F089
:1004600020911202203258F021E030E0FC01338369
:10047000228390E080E00F90DF91CF9108958091EA
:100480001302E82FF0E0E35AFE4F998190838F5FCB
:10049000809313028093120281E090E0ECCF61E040
:1004A000CE0101960E946901F7CFCF92DF92EF92C1
:1004B000FF920F931F93CF93DF93FC01C48121E040
:1004C00020937D01C0935C011092130210921202DE
:1004D0008385682B8FE192E00E942602D091120260
:1004E000D13208F092C00E94E3006B017C01809140
:1004F000E801811165C082E08093E80181E080938A
:10050000EA018FEF8093E70110920C02D0930B0267
:10051000ADE5B1E0EBEEF1E080E0D81385C01092DC
:100520000D0280910D02CC0FC82BC0930D0280915B
:10053000E901813009F07CC01092E9010E94E300DA
:100540006B017C0180910D028093BB0080919F0123
:100550009091A001A091A101B091A201892B8A2BB9
:100560008B2B99F00E94E30000919F011091A00154
:100570002091A1013091A2016C197D098E099F097A
:100580000617170728073907E0F18091BC0083FDA3
:10059000D9CF85EC8093BC000E94E3006B017C0105
:1005A0008091E801823009F445C08091E7018F3FD6
:1005B00061F18091E701803241F18091E70125C02E
:1005C00080919F019091A001A091A101B091A20101
:1005D000892B8A2B8B2B09F48ACF0E94E300009190
:1005E0009F011091A0012091A1013091A2016C19ED
:1005F0007D098E099F09061717072807390708F094
:1006000076CF80919E010E94AE011092130210924B
:10061000120210927D01DF91CF911F910F91FF90F7
:10062000EF90DF90CF9008959D9191938F5F75CF5C
:1006300085EEB0CF80919F019091A001A091A10182
:10064000B091A201892B8A2B8B2B09F4A9CF0E9490
:10065000E30000919F011091A0012091A101309130
:10066000A2016C197D098E099F0906171707280733
:10067000390708F095CFC5CF089590E080E0089540
:10068000FC0101900020E9F73197AF01481B590B9D
:10069000BC018BE292E00C943C0185ED8093BC00A0
:1006A00080919F019091A001A091A101B091A20120
:1006B0000796A11DB11D23E0B695A795979587953F
:1006C0002A95D1F72091BC0024FD03C01092E801C7
:1006D000089540919F015091A0016091A1017091F6
:1006E000A201452B462B472B69F30097A105B105C5
:1006F00041F02AE22A95F1F700C00197A109B1095A
:10070000E1CF80919E010C94AE010F931F93CF9384
:100710008C01C62F0E9455026C2F6460C8010E9494
:1007200055026C2F6B7FC8010E94550283EC90E04C
:100730000197F1F7CF911F910F9108950F931F9398
:10074000CF93DF938C01D62FC42F607F642B0E9440
:10075000850380E1D89FB00111246C2BC801DF9183
:10076000CF911F910F910C948503CF93DF93CDB759
:10077000DEB728970FB6F894DEBF0FBECDBF98E066
:10078000E0E0F1E0DE01119601900D929A95E1F71B
:1007900090913302981708F48FEF90E0880F991F1B
:1007A00021E030E02C0F3D1F820F931FFC01608180
:1007B000606840E08BE292E028960FB6F894DEBFC6
:1007C0000FBECDBFDF91CF910C949E0341E00E94FC
:1007D0009E0381E090E008951F920F920FB60F9252
:1007E00011242F933F938F939F93AF93BF93809147
:1007F000170290911802A0911902B0911A0230913B
:10080000160223E0230F2D3758F50196A11DB11DC7
:10081000209316028093170290931802A093190256
:10082000B0931A0280911B0290911C02A0911D02AC
:10083000B0911E020196A11DB11D80931B029093E1
:100840001C02A0931D02B0931E02BF91AF919F9115
:100850008F913F912F910F900FBE0F901F90189581
:1008600026E8230F0296A11DB11DD2CF1F920F9231
:100870000FB60F9211242F933F934F935F936F9373
:100880007F938F939F93AF93BF93EF93FF93809149
:10089000B900887F803609F44AC0F0F5883209F43F
:1008A000A7C018F5803109F49BC0B8F4882309F477
:1008B000F9C0883009F494C0FF91EF91BF91AF91D6
:1008C0009F918F917F916F915F914F913F912F9168
:1008D0000F900FBE0F901F901895883109F488C0B3
:1008E000803251F78093E70114C0803409F49DC031
:1008F00040F48033B9F38833F9F68093E70185EC4F
:10090000B0C0803509F485C0883509F496C08834B4
:1009100099F60E944D03D0CF883909F48CC038F580
:10092000883729F050F4883611F0803729F683E0B3
:100930008093E8011092E60157C0883809F47BC023
:10094000803919F0803809F0B7CF8091E601803204
:1009500008F071C0E091E60181E08E0F8093E6011E
:100960008091BB00F0E0EA53FE4F80833DC0803BA6
:1009700039F0E0F4803A09F479C0883A09F09CCF64
:1009800084E08093E8011092C5011092C401E091C7
:100990001002F091110209958091C40181110FC0DC
:1009A00081E08093C4011092A40109C0803C09F445
:1009B000A6CF883C09F4A3CF883B09F07DCFE09116
:1009C000C50181E08E0F8093C501F0E0EC55FE4F2C
:1009D00080818093BB009091C5018091C40129C0A2
:1009E00080910D028093BB0085EC8093BC0064CFA6
:1009F00090910C0280910B02981758F5E0910C022F
:100A000081E08E0F80930C02F0E0E551FE4F808173
:100A1000E9CFE0910C0281E08E0F80930C0280916F
:100A2000BB00F0E0E551FE4F808390910C02809175
:100A30000B029817C8F285E8D8CFE0910C0281E04C
:100A40008E0F80930C028091BB00F0E0E551FE4FC9
:100A500080838091EA0181115CCF81E08093E9017C
:100A600084EA8093BC001092E80126CF85EC809345
:100A7000BC001092E8018091E601803230F4E091F0
:100A8000E601F0E0EA53FE4F10826091E60170E06B
:100A9000E0910E02F0910F0286EC91E00995109220
:100AA000E6010ACF1092E70134CFEFE1F2E01382C2
:100AB000128288EE93E0A0E0B0E084839583A68361
:100AC000B7838CE091E091838083EBE2F2E01382C4
:100AD00012828EE191E09183808387E2848384E1B6
:100AE000818784E0828713860895789484B5826034
:100AF00084BD84B5816084BD85B5826085BD85B5C2
:100B0000816085BD80916E00816080936E0010923F
:100B100081008091810082608093810080918100BA
:100B2000816080938100809180008160809380004B
:100B30008091B10084608093B1008091B0008160A9
:100B40008093B00080917A00846080937A008091D5
:100B50007A00826080937A0080917A00816080932D
:100B60007A0080917A00806880937A001092C100A8
:100B7000CCE9D0E0FE01249108E810E0F80184916E
:100B80008823C9F090E0880F991FFC01E859FF4FB6
:100B9000A591B491FC01E458FF4F459154913FB7A2
:100BA000F8949C91822F809598239C93FA019081D0
:100BB000892380833FBF1092150210921402109275
:100BC0001302109212020E9490018AE391E0909326
:100BD0001102809310028BE391E090930F028093B7
:100BE0000E021092300280913502823018F098E0A7
:100BF000909330028093330262E370E080E090E0F3
:100C00000E940801609136028BE292E00E94550238
:100C100068EE73E080E090E00E94080160E38BE200
:100C200092E00E9485039BE4E92E96E4F92EC70129
:100C30000197F1F760E38BE292E00E948503C70120
:100C40000197F1F760E38BE292E00E94850383E570
:100C500092E00197F1F760E28BE292E00E94850357
:100C600060913002606240E08BE292E00E949E035D
:100C700084E08093310240E06CE08BE292E00E94DD
:100C80009E0340E061E08BE292E00E949E032BE332
:100C9000E22E2FE1F22EC7010197F1F782E0809357
:100CA000320240E066E08BE292E00E949E0340E068
:100CB00062E08BE292E00E949E03C7010197F1F788
:100CC00088E08093360260E08BE292E00E94550259
:100CD00030EBE32E30E0F32E40E0C42E40E0D42E83
:100CE00080E00E94B50386E291E00E94400381E02B
:100CF0000E94B503F7018491FE01A490F801B4901D
:100D0000BB2081F081110E948C00EB2DF0E0EE0FF2
:100D1000FF1FEE58FF4FA591B4918C91A82289E353
:100D200091E011F48AE491E00E94400364E670E0EF
:100D300080E090E00E940801C114D10489F20E9471
:100D40000000CECFEE0FFF1F0590F491E02D099427
:040D5000F894FFCF45
:100D54000000400014005400000000002602F901C5
:100D64003D03CF01F201DF01D00100000000E603E2
:100D74003C013D033C03537461747573206461202A
:100D840053616964613A2020004174697661646149
:100D940020202020202020202000446573617469D5
:0C0DA400766164612020202020200000E7
:00000001FF
